:400000000080002011000000A5010000A501000008B5044B1A6803F53F5302331A6000F0C3F800BFFA46004010B5054C237833B9044B13B10448AFF300800123237010BD70
:400040002081FF1F000000007406000008B5064B1BB106480649AFF300800648036813B1054B03B1984708BD00000000740600002481FF1F0881FF1F0000000008B540F6B2
:40008000073000F031FA012000F0A6FA4FF4106000F02AFA012000F09FFA4FF4706000F023FA012000F098FA40F6014000F01CFA012000F091FA40F6012000F015FA012079
:4000C00000F08AFA4FF4807000F00EFA012000F083FA4FF4007000F007FA012000F07CFA4FF4407000F000FA012000F075FA4FF4806000F0F9F9012000F06EFA4FF4A0608A
:4001000000F0F2F9012000F067FA4FF4C06000F0EBF9012000F060FA4FF4E06000F0E4F9012000F059FA4FF4006000F0DDF9012000F052FA08BD00BFF8B562B600F02AFAF9
:4001400000F01AFAFFF79AFF144C0027144E27601EE06760012511E0591C226803EBC20336F8133003EB0120A06080B200F0BCF9284600F031FA6368013363606368072B4F
:40018000EADD4FF47A7000F027FA2368013323602368B3F5807FDCDDD9E700BF3C81FF1F78060000FEE700BF80B5104F104E002415E031687368B568224604E051F8040B51
:4001C00043F8040B0432AA42F8D1F168224602E043F8044B04328A42FAD11036013F002FE7D100F00FFAFFF7A7FFFEE701000000D816000010B5124A124B1A6008331A6845
:4002000042F400721A6000230F48104C104908E0032B02D854F8232000E0024641F8232001332F2BF4D90B4B1A780B4B1A70084A0A4B1A6000F0ACF80022094B1A6010BDB5
:400240000004FA050CED00E0A5010000000000000080FF1FBC7600400481FF1F08ED00E00081FF1FFEE700BFF0B400231F4611E050F82760F2B226F0FF0608E001EB43056A
:4002800011F813406D78A5550133013AD2B2002AF4D101370C2FEBD9F0BC7047064B1B78DBB203F00701054A11701B09013213704422034B1A707047CF0100496E5800405D
:4002C0007658004008B50A46002100F0CAF908BDF8B50223254A138018210232117002F27E22137008234FF040221370032102F5007211701E4A1178C9B21E4A1170A2F22B
:400300007F42138041F251221B4B1A80002519241A4F4FF4F0760AE03B7803F0010343EA450505F00305304600F042F9013C0CB1032DF1D114B90320FFF794FF104B4FF4A3
:4003400080721A8007221A7000220E490A704820023108701A700222033B1A7003F2A1331A7842F001021A70F8BD00BF8040004008010049A1460040204200402542004072
:40038000044000400640004008B500F061F908BD38B572B6314B1A7842F004021A7000242F4D09E004EB44035B002B4418689988FFF788FF0134E4B2072CF3D90024294D77
:4003C0000AE004EB84035B002B44186859681A89FFF7DAFF0134E4B2002CF2D04FF090402149FFF741FF214B1A7842F002021A7010331A7842F002021A701D4C237843F02E
:40040000400323701B4B1A7842F010021A701A481A490822FFF7B8FF19481A490822FFF7B3FF194819490822FFF7AEFF184B1A7842F008021A70174D61232B70FFF748FFE3
:4004400081232B700122144B1A70FFF727FF134821460E22FFF798FF38BD00BFE846004078160000A81600003400004803500140A0430040C2430040C2510040E002004833
:40048000F2510040E802004822510040F0020048224300400048004004000840B043004008B500F08FF8094B1A7842F020021A70013B1A7842F010021A7003F201131A78BF
:4004C00042F010021A7000F081F808BD99640040014B1878704700BF68640040014B1878704700BF69650040034A137813F0040FFBD0024B188070476864004048640040B8
:4005000008B50F4A0F4900E00B88137813F0200FFAD100F057F80C4B1A7842F001021A701A7802F0FE021A7001331A7842F001021A701A7802F0FE021A7000F047F808BDD6
:4005400069650040586400409864004008B51F22074B1A70FFF7D4FFFFF7BAFFFFF7BEFF0023044A137002F20112137008BD00BF896400408864004008B5054B1B7823B959
:40058000FFF7E4FF0122024B1A70FFF789FF08BD4881FF1F054B1A7842F001021A7010331A7842F001021A70704700BFA24300400230800800F0058000BF013800467FF48E
:4005C000FCAF7047EFF3108072B6704780F31088704700BFAFF3008038B50446084D04E02868FFF7E5FFA4F50044B4F5004FF7D8034B586800FB04F0FFF7DAFF38BD00BFA7
:400600000C81FF1F70B50E4B0E4D0024ED1AAD101E46AC4204D056F8242090470134F8E701F048F8084D094B0024ED1AAD101E46AC4204D056F8242090470134F8E770BD19
:40064000C0160000C0160000C8160000C016000010B50023934203D0CC5CC4540133F9E710BD02440346934202D003F8011BFAE77047000000000000000000000000000084
:4006800000000000000000007E0081009500B100B100950081007E007E00FF00EB00CF00CF00EB00FF007E000E001F003F007E003F001F000E00000008001C003E007F000B
:4006C0003E001C00080000001800BA00FF00FF00FF00BA00180000001000B800FC00FF00FC00B800100000000000000018003C003C00180000000000FF00FF00E700C30020
:40070000C300E700FF00FF0000003C0066004200420066003C000000FF00C3009900BD00BD009900C300FF007000F80088008800FD007F0007000F0000004E005F00F10071
:40074000F1005F004E000000C000E000FF007F000500050007000700C000FF007F000500050065007F003F0099005A003C00E700E7003C005A0099007F003E003E001C00F7
:400780001C00080008000000080008001C001C003E003E007F000000000024006600FF00FF0066002400000000005F005F00000000005F005F00000006000F0009007F009F
:4007C0007F0001007F007F004000DA00BF00A500FD005900030002000000700070007000700070007000000080009400B600FF00FF00B600940080000000040006007F00E7
:400800007F000600040000000000100030007F007F003000100000000800080008002A003E001C000800000008001C003E002A0008000800080000003C003C0020002000B1
:40084000200020002000000008001C003E00080008003E001C000800300038003C003E003E003C003800300006000E001E003E003E001E000E0006000000000000000000A0
:400880000000000000000000000006005F005F0006000000000000000000070007000000070007000000000014007F007F0014007F007F001400000024002E006B006B00F2
:4008C0003A0012000000000046006600300018000C0066006200000030007A004F005D0037007A00480000000400070003000000000000000000000000001C003E006300CA
:4009000041000000000000000000410063003E001C0000000000000008002A003E001C001C003E002A000800080008003E003E00080008000000000000008000E000600004
:40094000000000000000000008000800080008000800080000000000000000006000600000000000000000006000300018000C0006000300010000003E007F007100590042
:400980004D007F003E000000400042007F007F00400040000000000062007300590049006F0066000000000022006300490049007F0036000000000018001C001600530078
:4009C0007F007F005000000027006700450045007D003900000000003C007E004B004900790030000000000003000300710079000F0007000000000036007F004900490097
:400A00007F0036000000000006004F00490069003F001E00000000000000000066006600000000000000000000008000E6006600000000000000000008001C003600630048
:400A400041000000000000002400240024002400240024000000000000004100630036001C0008000000000002000300510059000F000600000000003E007F0041005D0040
:400A80005D001F001E0000007C007E00130013007E007C000000000041007F007F00490049007F00360000001C003E0063004100410063002200000041007F007F004100B8
:400AC00063003E001C00000041007F007F0049005D0041006300000041007F007F0049001D000100030000001C003E006300410051007300720000007F007F0008000800C5
:400B00007F007F0000000000000041007F007F00410000000000000030007000400041007F003F000100000041007F007F0008001C0077006300000041007F007F0041009A
:400B400040006000700000007F007F000E001C000E007F007F0000007F007F0006000C0018007F007F0000001C003E006300410063003E001C00000041007F007F004900C8
:400B800009000F00060000001E003F00210071007F005E000000000041007F007F00090019007F006600000026006F004D0059007300320000000000030041007F007F00E3
:400BC00041000300000000007F007F00400040007F007F00000000001F003F00600060003F001F00000000007F007F003000180030007F007F000000430067003C00180047
:400C00003C0067004300000007004F00780078004F0007000000000047006300710059004D0067007300000000007F007F00410041000000000000000100030006000C0001
:400C400018003000600000000000410041007F007F0000000000000008000C000600030006000C00080000008000800080008000800080008000800000000000030007000B
:400C8000040000000000000020007400540054003C0078004000000041007F003F004800480078003000000038007C00440044006C002800000000003000780048004900C0
:400CC0003F007F004000000038007C00540054005C0018000000000048007E007F00490003000200000000009800BC00A400A400F8007C000400000041007F007F00080038
:400D000004007C0078000000000044007D007D0040000000000000006000E00080008000FD007D000000000041007F007F00100038006C0044000000000041007F007F000D
:400D400040000000000000007C007C00180038001C007C00780000007C007C00040004007C0078000000000038007C00440044007C003800000000008400FC00F800A400DB
:400D800024003C001800000018003C002400A400F800FC008400000044007C0078004C0004001C001800000048005C00540054007400240000000000000004003E007F00C6
:400DC00044002400000000003C007C00400040003C007C00400000001C003C00600060003C001C00000000003C007C007000380070007C003C00000044006C00380010006B
:400E000038006C00440000009C00BC00A000A000FC007C00000000004C00640074005C004C00640000000000080008003E00770041004100000000000000000000007700CC
:400E400077000000000000004100410077003E00080008000000000002000300010003000200030001000000700078004C0046004C007800700000000E009F009100B10008
:400E8000FB004A00000000003A007A00400040007A007A004000000038007C00540055005D00190000000000020023007500550055007D007B0042002100750054005400F6
:400EC0007D0079004000000021007500550054007C0078004000000020007400570057007C0078004000000018003C00A400A400E40040000000000002003B007D00550004
:400F000055005D001B00020039007D00540054005D0019000000000039007D00550054005C00180000000000010045007C007C0041000100000000000200030045007D00F4
:400F40007D00430002000000010045007D007C00400000000000000079007D001600120016007D0079000000700078002B002B00780070000000000044007C007C0055004F
:400F8000550045000000000020007400540054007C007C00540054007C007E000B0009007F007F004900000032007B00490049007B0032000000000032007A00480048003E
:400FC0007A0032000000000032007A004A00480078003000000000003A007B00410041007B007A00400000003A007A004200400078007800400000009A00BA00A000A000F9
:40100000FA007A0000000000010019003C00660066003C00190001003D007D00400040007D003D000000000018003C002400E700E70024002400000068007E007F00490094
:4010400043006600200000002B002F00FC00FC002F002B0000000000FF00FF00090009002F00F600F800A0004000C0008800FE007F000900030002002000740054005500DE
:401080007D00790040000000000044007D007D0041000000000000003000780048004A007A0032000000000038007800400042007A007A00400000007A007A000A000A0027
:4010C0007A007000000000007D007D00190031007D007D0000000000000026002F0029002F002F0028000000000026002F0029002F00260000000000300078004D004500B7
:40110000600020000000000038003800080008000800080000000000080008000800080038003800000000004F006F0030001800CC00EE00BB0091004F006F0030001800FD
:401140006C007600FB00F9000000000000007B007B0000000000000008001C003600220008001C0036002200220036001C000800220036001C000800AA00000055000000B4
:40118000AA00000055000000AA005500AA005500AA005500AA005500DD00FF00AA007700DD00AA00FF007700000000000000FF00FF00000000000000100010001000FF000D
:4011C000FF00000000000000140014001400FF00FF0000000000000010001000FF00FF000000FF00FF00000010001000F000F0001000F000F0000000140014001400FC0072
:40120000FC0000000000000014001400F700F7000000FF00FF00000000000000FF00FF000000FF00FF00000014001400F400F4000400FC00FC000000140014001700170040
:4012400010001F001F000000100010001F001F0010001F001F0000001400140014001F001F00000000000000100010001000F000F0000000000000000000000000001F00CB
:401280001F001000100010001000100010001F001F00100010001000100010001000F000F000100010001000000000000000FF00FF00100010001000100010001000100093
:4012C0001000100010001000100010001000FF00FF00100010001000000000000000FF00FF0014001400140000000000FF00FF000000FF00FF001000000000001F001F00CC
:40130000100017001700140000000000FC00FC000400F400F40014001400140017001700100017001700140014001400F400F4000400F400F400140000000000FF00FF00AD
:401340000000F700F70014001400140014001400140014001400140014001400F700F7000000F700F700140014001400140017001700140014001400100010001F001F00AF
:4013800010001F001F001000140014001400F400F40014001400140010001000F000F0001000F000F0001000000000001F001F0010001F001F0010000000000000001F00B4
:4013C0001F00140014001400000000000000FC00FC0014001400140000000000F000F0001000F000F000100010001000FF00FF001000FF00FF001000140014001400FF0007
:40140000FF001400140014001000100010001F001F00000000000000000000000000F000F000100010001000FF00FF00FF00FF00FF00FF00FF00FF00F000F000F000F0003B
:40144000F000F000F000F000FF00FF00FF00FF0000000000000000000000000000000000FF00FF00FF00FF000F000F000F000F000F000F000F000F0038007C0044006C00D8
:4014800038006C0044000000FC00FE002A002A003E001400000000007E007E0002000200060006000000000002007E007E0002007E007E0002000000630077005D0049001A
:4014C000630063000000000038007C0044007C003C000400040000008000FE007E00200020003E001E0000000400060002007E007C000600020000009900BD00E700E700A4
:40150000BD009900000000001C003E006B0049006B003E001C0000004C007E007300010073007E004C000000300078004A004F007D0039000000000018003C0024003C005C
:401540003C0024003C0018009800FC0064003C003E0027003D0018001C003E006B00490049000000000000007E007F00010001007F007E00000000002A002A002A002A00CE
:401580002A002A0000000000440044005F005F004400440000000000400051005B004E004400400000000000400044004E005B005100400000000000000000000000FE008F
:4015C000FF000100070006006000E0008000FF007F00000000000000080008006B006B00080008000000000024003600120036002400360012000000000006000F0009007E
:401600000F000600000000000000000000001800180000000000000000000000000010001000000000000000100030007000C000FF00FF000100010000001F001F00010096
:401640001F001E0000000000000019001D0017001200000000000000000000003C003C003C003C0000000000000000000000000000000000000000000051004020003051AC
:401680000040400000000140800800090140000700140140000800400140000A004C01400002005001402000800801406002004880000000F8B500BFF8BC08BC9E467047F6
:4016C0004D000000F5010000F8B500BFF8BC08BC9E46704729000000E81600000881FF1F1800000030000000000000000000E02EC05D00001800000000366E01000000002A
:4017000000000000000000000000000000000000000000000000000000000000000000000000000000000000000000000000000000000000000000000000000000000000A9
:401740000000000000000000000000000000000000000000000000000000000000000000000000000000000000000000000000000000000000000000000000000000000069
:401780000000000000000000000000000000000000000000000000000000000000000000000000000000000000000000000000000000000000000000000000000000000029
:4017C00000000000000000000000000000000000000000000000000000000000000000000000000000000000000000000000000000000000000000000000000000000000E9
:020000040003F7
:0200000480007A
:4000000005520040016400402408014040090140010B01405118014043190140044501400646014004470140014C0140034D01400450014010401180608061807C10891FCC
:4000400008010A02100112021C03300136023E41404541024210440649FF4AFF4BFF4C024E704F085004540958045A045B045F0162C0644065016610671168C069016B114B
:400080006C406D016E406F01009002200510060809080A020B440C400D010E020F8010A8114018101A011D401F0120042B403110322038043B40400241014205444246088D
:4000C00049284A014B414D204E014F805128524059C05D885E015F1060046702686869446B0170C0720280408840891094109920B120C047C29FC40FCA01CC04CE0AD0BD72
:40010000D23CD6F0D814E4048C100040010A0471050806020702086D0D0A10221101125813081402160D182019081C6D1D02202D210C22402303244D250326202704282DAD
:4001400029022A402B082C122D082E242F02310F320F34703A083B02580459045F01802E82518320852489248C708D249104932095209704981999019A229B069C249E48F7
:400180009F10A004A107A318A908AB03AD01AF1EB078B320B507B607B718B802BA80BB20BF04D440D804D904DB04DF0100400340042406400A060C800E200F8412C0140119
:4001C0001608174518401A021BC01C041D101E2421082270230426012740280129102B402C082D402E042F8030083250330536A138A039243A083B013C803D043E026128A6
:40020000630182409080916493019440960497049A429B019D10A0C8A120A601A740B240B310C079C2F3C4F8CAFDCCBFCEDFD80EE4015F026308D601D80201048F029F023D
:40024000A704C008E0088304A704B104EA04834077409B40DE0400010C0110011C010000000000000702380D010000008405000A0A001000600000000403000C560009000D
:400280008409000684000000800004000400800000007F00000F800008000020000040005402100006DEFC0B1FFFFFFF2300F00804000000000002240404040400000001E6
:4002C0000000C00040011011C001001140014001000000000000000000000000000000000080800080000000100000000000000000C0C000C00000000000000000000000B8
:4003000000000000000000000000000000000000000000000000000000000000000000000000000000000000000000000000000000000000000000000000000000000000BD
:40034000000000000000000000000000000000000000000000000000000000000000000000000000000000000000000000000000000000000000000000000000000000007D
:40038000000000000000000000000000000000000000000000000000000000000000000000000000000000000000000000000000000000000000000000000000000000003D
:4003C00000000000000000000000000000000000000000000000000000000000000000000000000000000000000000000000000000000000000000000000000000000000FD
:0200000490006A
:0400000000004005B7
:0200000490105A
:04000000BC90ACAF55
:0200000490303A
:0200000044D1E9
:0200000490402A
:4000000000000000000000000000000000000000000000000000000000000000000000000000000000000000000000000000000000000000000000000000000000000000C0
:400040000000000000000000000000000000000000000000000000000000000000000000000000000000000000000000000000000000000000000000000000000000000080
:400080000000000000000000000000000000000000000000000000000000000000000000000000000000000000000000000000000000000000000000000000000000000040
:4000C0000000000000000000000000000000000000000000000000000000000000000000000000000000000000000000000000000000000000000000000000000000000000
:0200000490501A
:0C00000000012E16106900012E1B553A5D
:00000001FF