:100000000206CE008F828E83E0540100000070F85B
:100010002278FFE4F6D8FD02078BBB010689828AAD
:1000200083E0225002E722BBFE02E32289828A8318
:10003000E49322BB010689828A83F0225002F722D0
:10004000BBFE01F322EF8DF0A4A8F0CF8CF0A42822
:10005000CE8DF0A42EFE22BC000BBE0029EF8DF049
:1000600084FFADF022E4CCF875F008EF2FFFEE33FB
:10007000FEEC33FCEE9DEC984005FCEE9DFE0FD5AA
:10008000F0E9E4CEFD22EDF8F5F0EE8420D21CFE7E
:10009000ADF075F008EF2FFFED33FD4007985006E7
:1000A000D5F0F222C398FD0FD5F0EA22C5F0F8A3EF
:1000B000E028F0C5F0F8E582158270021583E0387B
:1000C000F022BB010A89828A83F0E5F0A3F0225076
:1000D00006F709A7F01922BBFE06F3E5F009F319AC
:1000E00022EF2BFFEE3AFEED39FDEC38FC22E88FD3
:1000F000F0A4CC8BF0A42CFCE98EF0A42CFC8AF0AC
:10010000EDA42CFCEA8EF0A4CDA8F08BF0A42DCCAD
:100110003825F0FDE98FF0A42CCD35F0FCEB8EF006
:10012000A4FEA9F0EB8FF0A4CFC5F02ECD39FEE4EC
:100130003CFCEAA42DCE35F0FDE43CFC2275F00831
:10014000758200EF2FFFEE33FECD33CDCC33CCC51F
:100150008233C5829BED9AEC99E58298400CF5823A
:10016000EE9BFEED9AFDEC99FC0FD5F0D6E4CEFBAC
:10017000E4CDFAE4CCF9A88222B800C1B90059BA9A
:10018000002DEC8BF084CFCECDFCE5F0CBF97818C8
:10019000EF2FFFEE33FEED33FDEC33FCEB33FB10C2
:1001A000D703994004EB99FB0FD8E5E4F9FA2278DC
:1001B00018EF2FFFEE33FEED33FDEC33FCC933C9EE
:1001C00010D7059BE99A4007EC9BFCE99AF90FD8F8
:1001D000E0E4C9FAE4CCFB2275F010EF2FFFEE3318
:1001E000FEED33FDCC33CCC833C810D7079BEC9A57
:1001F000E899400AED9BFDEC9AFCE899F80FD5F0E0
:10020000DAE4CDFBE4CCFAE4C8F922EF5BFFEE5A66
:10021000FEED59FDEC58FC22EF4BFFEE4AFEED4996
:10022000FDEC48FC22EB9FF5F0EA9E42F0E99D428E
:10023000F0E89C45F022E8600FEFC333FFEE33FE99
:10024000ED33FDEC33FCD8F122BB010789828A83B0
:100250000202695005E9F80204F0BBFE05E9F80264
:1002600004FC89828A83020508E0FCA3E0FDA3E088
:10027000FEA3E0FF22E0F8A3E0F9A3E0FAA3E0FB8D
:1002800022ECF0A3EDF0A3EEF0A3EFF022A4258280
:10029000F582E5F03583F58322E0FBA3E0FAA3E0E5
:1002A000F922F8E0FBA3A3E0F925F0F0E58215823E
:1002B00070021583E0FA38F022EBF0A3EAF0A3E92C
:1002C000F022D083D082F8E4937012740193700D01
:1002D000A3A393F8740193F5828883E47374029363
:1002E0006860EFA3A3A380DFE5092582F582E50816
:1002F0003583F583B508048582092210AF0685820F
:1003000009F50822858209F508D2AF22EC8EF0A407
:10031000CCC5F0CCCDF8EFA4CEC5F02DFDE43CFC6F
:10032000E8A42EC8C5F03DFDE43CFCEFA4FFE5F0D9
:1003300028FEE43DFDE43CFC22E709F608DFFA80F4
:1003400046E709F208DFFA803E88828C83E709F0ED
:10035000A3DFFA8032E309F608DFFA806EE309F2E0
:1003600008DFFA806688828C83E309F0A3DFFA80D5
:100370005A89828A83E0A3F608DFFA804E89828A4E
:1003800083E0A3F208DFFA804280D280FA80C68040
:10039000D4805580F28029801080A680EA809A80DF
:1003A000A880DA80E280CA802988848C8589828A44
:1003B00083E493A30586F0A30586DFF5DEF3800BC7
:1003C00089828A83E493A3F608DFF9ECFAA9F0EDB9
:1003D000FB2288848C8589828A83E0A30586F0A32A
:1003E0000586DFF6DEF480E389828A83E493A3F254
:1003F00008DFF980D688F0EF60010E4E60CD88F0FE
:10040000ED2402B4040050C3F582EB2402B40400CE
:1004100050B9232345822390038973E709F60870B6
:10042000FA8046E709F20870FA803E88828C83E7FA
:1004300009F0A370FA8074E309F60870FA806CE39F
:1004400009F20870FA806488828C83E309F0A37053
:10045000FA805889828A83E0A3F60870FA804C8972
:10046000828A83E0A3F20870FA804080D280FA800A
:10047000C680D4805180F28027801080A680EA80D8
:100480009A80A880DA80E280CA802788848C858957
:10049000828A83E493A30586F0A3058670F5800B1A
:1004A00089828A83E493A3F60870F9ECFAA9F0ED47
:1004B000FB2288848C8589828A83E0A30586F0A349
:1004C000058670F680E589828A83E493A3F208703A
:1004D000F980D888F0ED2402B4040050CEF582EB08
:1004E0002402B4040050C4232345822390046B7378
:1004F000E6FC08E6FD08E6FE08E6FF22E2FC08E26C
:10050000FD08E2FE08E2FF22E493FC740193FD740F
:100510000293FE740393FF2290480074F1F07B0075
:100520007A4679E8121031EF4405FD7B007A46796E
:10053000E812103D1209ED7B017A50790312103157
:10054000EF4402FD7B017A50790312103D7B017A62
:10055000507913121031EF4402FD7B017A50791368
:1005600012103D9043A0E0FFEF4440FF9043A0EF06
:10057000F09043C2E0FFEF4410FF9043C2EFF07BE6
:10058000087A1079E0C003C002C0017B007A51797B
:100590000290005E1202B9D001D002D0037F087E23
:1005A00000120E3B7B087A1079E8C003C002C0013C
:1005B0007B007A51791290005E1202B9D001D0020C
:1005C000D0037F087E00120E3B7B087A1079F0C0C2
:1005D00003C002C0017B007A5179C290005E120212
:1005E000B9D001D002D0037F087E00120E3B7B08F9
:1005F0007A1079F8C003C002C0017B007A5179F209
:1006000090005E1202B9D001D002D0037F087E00B4
:10061000120E3B7B087A117900C003C002C0017B37
:10062000007A51792290005E1202B9D001D002D036
:10063000037F087E00120E3B7B087A117908C00305
:10064000C002C0017B007A51794290005E1202B96B
:10065000D001D002D0037F087E00120E3B7B087AC7
:10066000117910C003C002C0017B007A5179529009
:10067000005E1202B9D001D002D0037F087E0012C2
:100680000E3B904689743AF09048007431F012089D
:100690001A90480074B1F0120DBF7B007A4379A024
:1006A000C003C002C0017B007A4379B090005E12A3
:1006B00002B9D001D002D0037F0E7E00120E3B9013
:1006C00043B0E0FFEF54FDFF9043B0EFF02275938D
:1006D0000078007583467582E8E04401F00090469A
:1006E000ECE0F99046FAE0FAB903225420B4001283
:1006F000B8001AEA901FFFF07401901FFEF09046B8
:10070000F6F0901FFEE06005901FFFE0FA904800B1
:1007100074C0F07581099076BCE4F0A3F0A3F0A357
:10072000F0907010F0907019F0907020F0907600BA
:100730007410F0907604E4F0A3F0A3F0A3F09078A6
:10074000007800087400F0A37408F0E8B80402749C
:10075000FFA3F0A37422F0A374BCF0A37476F0A3FB
:10076000E4F0A3E81475F008A4F0A3B804D59070E1
:10077000107401F0907014F07E707F1812000490D5
:100780007010F0EA900054F002001175082075090D
:1007900000120518120CB50207D5020F09E493A345
:1007A000F8E493A34003F68001F208DFF48029E423
:1007B00093A3F85407240CC8C333C4540F4420C86F
:1007C000834004F456800146F6DFE4800B01020406
:1007D0000810204080900D87E47E019360BCA3FF49
:1007E000543F30E509541FFEE493A360010ECF543B
:1007F000C025E060A840B8E493A3FAE493A3F8E42A
:1008000093A3C8C582C8CAC583CAF0A3C8C582C895
:10081000CAC583CADFE9DEE780BE7E007F5990004B
:100820005DEEF0A3EFF07B007A4079807F0B7E00D5
:100830007D187C00120FF49043007402F090400089
:100840007408F09042007403F07B0C7A017908126E
:1008500010319046A1EFF07B007A4279227D087C2E
:10086000001210167B007A4279207D517C10121004
:100870001690005FE4F07F197E007D007C00900000
:100880005912028190005DE0FEA3E0FF8F828E830B
:10089000120269EC4D4E4F604E90005FE0FFEF6436
:1008A000036044904225E0FFEF5401FF7E0090007A
:1008B0005FE0FEEE25E0FEEE4FFFEF5403FF9000F9
:1008C0005FEFF07FE07E017D007C00120E00900063
:1008D000591202697BFF7AFF79FF78FF1200E190DD
:1008E0000059120281809D7B007A4079047D037C4F
:1008F00001121016904004E4F09040047407F09048
:100900004006E4F09040087448F0904004E4F09011
:1009100040017402F09043A2E0FFEF4401FFEFF0CA
:1009200022900059E4F07F05120B62EF20E7077D6B
:10093000807F05120C4C7F07120B62900059EFF07C
:1009400090006FE4F090006FE0FFEFC3940350203D
:10095000900059E0FFC0077F07120B62AE07D00777
:10096000EF4EFF900059EFF090006FE004F080D55B
:10097000900059E0FFEF5405FFEF600E900059E042
:10098000FFEF4403FF900059EFF0900059E0FFEFB4
:1009900030E159900059E0FFEF30E03490006FE40F
:1009A000F090006FE0FFEFC39410500D7F21120B09
:1009B0006290006FE004F080E87F0F120B62EF445A
:1009C00020FD7F0F120C4C7F0F120B62EF20E5F71A
:1009D0007F21120B6290006CEFF090006CE0FF1230
:1009E000100690006DE475F0011200AC227F007ECD
:1009F000007D007C009000701202819076007410DF
:100A0000F09070107401F0907019E4F09078027416
:100A100001F090780374A3F07B027A7879007D0866
:100A20007C021210187B027A787904C003C002C0DD
:100A3000017BFF7A10796EAC02AD01D001D002D0FB
:100A4000031210187B027A7879067D087C781210E0
:100A5000187B027A7679047D107C001210187B02D4
:100A60007A7679067D007C0012101890702974093E
:100A7000F0907039740BF0907069741AF09070797E
:100A8000741FF09070147401F0907018E0FFEF2064
:100A9000E0F7907028E0FFEF20E0F7907038E0FF7B
:100AA000EF20E0F7907068E0FFEF20E0F7907078BB
:100AB000E0FFEF20E0F7227D017F1D120C4C7D024C
:100AC0007F28120C4C7D3C7F32120C4C7D147F35FC
:100AD000120C4C7F0D120B62EF4440FD7F0D120C87
:100AE0004C7F017E007D007C00120BE07D087F269C
:100AF000120C4C7DA57F0F120C4C7F0F120B62EF76
:100B000030E50680F58002800E7D007F39120C4CA6
:100B10007DA47F10120C4C7D0F7F03120C4C7D487E
:100B20007F06120C4C7D557F1B120C4C7D057F1CE3
:100B3000120C4C7D0E7F12120C4C7D057F11120C95
:100B40004C7F647E007D007C00120BE07D807F1670
:100B5000120C4C7D057F15120C4C7D087F1E120C6B
:100B60004C2290005AEFF090005BE4F07F00120EF0
:100B70006F120F267E00EF30E1F790005AE0FF126F
:100B80000EEA120F267E00EF30E3F7120EA0EFD32D
:100B900094004003120FCA7F017E007D007C00128A
:100BA0000BE0120F267E00EF30E1F77F00120EEA15
:100BB000120F267E00EF30E3F7120EA0EFD3940061
:100BC0004008120FCA90005BEFF07F01120E6F7F9A
:100BD000017E007D007C00120BE090005BE0FF22B4
:100BE00090FFFC1202E81202817F007E807D007C73
:100BF00000850883850982120275D31202254030D0
:100C0000900055120269120E00850883850982C082
:100C100083C082120269C3EF9400FFEE9480FEED60
:100C20009400FDEC9400FCD082D08312028180B944
:100C300090004B12026985088385098212027512A1
:100C400000EE120E009000041202E82290005AEF0B
:100C5000F090005BEDF07F00120E6F120F267E0009
:100C6000EF30E1F790005AE0FFEF4480FF120EEA08
:100C7000120F267E00EF30E3F7120FCA7F017E00CD
:100C80007D007C00120BE0120F267E00EF30E1F7B2
:100C900090005BE0FF120EEA120F267E00EF30E3B9
:100CA000F7120FCA7F01120E6F7F017E007D007C5C
:100CB00000120BE022900065747FF0900066748053
:100CC000F0900059747FF0900059E0FFEF602190A0
:100CD0000059E0FFEF14FF900059E0FE75F008EEB8
:100CE00090780012028DEFF0900059E014F080D758
:100CF000900059E0FF75F008EF90780012028DE443
:100D0000F022900059E4F0906569E0FFEF5420FF75
:100D10007E00EF4E70047F0180027F00EF7007902D
:100D20006558E0FF80E1120FDF900059EFF0906509
:100D300098E0FFEF4403FFEFF0906598E0FFEF5479
:100D4000FCFFEFF0900059E0FF120F5C2290005979
:100D5000E4F0120FDF900059EFF0906498E0FFEF9D
:100D60004420FFEFF0906598E0FFEF4410FFEFF0B4
:100D7000906599E0FFEF4410FFEFF0900059E0FF1D
:100D8000120F5C1210252242006D00004100740019
:100D900041007500440050016E360044004B0000D5
:100DA0005DC041004F184400552EE0000044006132
:100DB0000000000043006700000041004900007B84
:100DC0000C7A0179CF121031900059EFF090005950
:100DD000E0FFEF5407FF90586EEFF0900059E0FFEE
:100DE000EFC4540FFFEF540FFF90586FEFF090587F
:050DF000767444F022BE
:100E0000EC4D4E700D78FCEF24E950032840FD2294
:100E100000007BF178DA0000EF28FF78FFEE38FE63
:100E2000ED38FDEC38FC50E7EF2BFFEE38FEED38E7
:100E3000FDEC38FC40F22205020304758600EF4EFB
:100E40006027EF60010E75930090005EE0F595A3BA
:100E5000E0F585A3E0F5848B938A838982E0A3057E
:100E600086F0A31586DFF6DEF4E4F593F59522907F
:100E7000005CEFF0905150E0FFEF54F7FF90005D01
:100E8000EFF090005CE0FFEF33333354F8FFEF54A2
:100E900008FF90005DE0FEEF4EFF905150EFF02212
:100EA00090005CE4F0906569E0FFEF5420FF7E0065
:100EB000EF64204E70047F0180027F0090005CEFA1
:100EC000F090005CE0FF227FFF121006120F8B7F74
:100ED000647E007D007C00120BE0120AB77F0012D6
:100EE00010067D017F01120C4C2290005CEFF09007
:100EF0006568E0FFEF5404FF7E00EF4E60F1900064
:100F00005CE0FF906548EFF022120EC71209211233
:100F10000F74EF60F7120EC77FFA7E007D007C0031
:100F2000120BE080E722906568E0FFEF54EFFF903E
:100F30006569E0FEEF4EFF90005CEFF090005CE032
:100F4000FF22906488740FF0120D02120FA0120F8E
:100F5000B5906588E4F0906589E4F022EF54016073
:100F600004D2AF8002C2AFEF5402FF9044F4E054C9
:100F7000FD4FF0229051F1E0FFEF5408FF7E00EFAB
:100F80007803CEC313CE13D8F9FF22900075E0FF8B
:100F9000EF7009120F429000757401F0120D4D228E
:100FA000900059E4F0906568E0FF900059EFF090F0
:100FB0000059E0FF22900059E4F0906569E0FF904D
:100FC0000059EFF0900059E0FF2290005CE4F090AF
:100FD0006558E0FF90005CEFF090005CE0FF22902D
:100FE00044F4E0F84402F0E85402FF10AF01227428
:100FF000014FFF228B938A838982EFF0A3EEF0A347
:10100000EDF07593002290005AEFF090005AE0FF47
:1010100090647CEFF0228B938A838982EDF0A3ECBD
:10102000F0759300229043A2E0FFEF4401FFEFF040
:10103000228B938A838982E0759300FF228B938AA7
:10104000838982EDF075930022010000000000000A
:101050000001000000000001000100000008000085
:10106000000100000008000100010000000100086C
:101070002302104976080008230310517610000857
:1010800023041059762800082305106176300005E6
:1010900023061069702000052307106970300005D1
:1010A000230810697060000523FE1069707000103D
:1010B000220A00705130001022FE00705160018041
:1010C000220C007000000180220D007002000180DF
:1010D000220E007004000200220F00700600008043
:1010E0002210007008800180221100700A00018027
:1010F000221200700E000380221300701400018081
:10110000221400701A000080221500704100008037
:101110002216007042000080221700704300010078
:1011200022180070440000802219007046000180DF
:1011300022FE007047000007231B0000521000072A
:10114000231C000852200006231D001052600007D7
:10115000231E00185278002023FE02A06470008035
:101160002320002008000080232100A00C00008024
:10117000232201200C800080232301A0180000807E
:101180002324022018800080232502C04D00008007
:10119000232603404D800080232703C04C0000809D
:1011A000232804404C800080232904C0468000800E
:1011B000232A054045000080232B05C04580008080
:1011C000232C06401B800080232D06C019000080C0
:1011D000232E074019800080232F07C0178000802E
:1011E0002330084009000080233108C009800080B6
:1011F000233209400B800080233309C00580008022
:1012000023340A400D00008023350AC00D80008081
:1012100023360B400380008023370BC00F800080F3
:1012200023380C400180008023390CC04900008025
:10123000233A0D4049800080233B0DC04880008048
:10124000233C0E4043800080233D0EC0428000803E
:10125000233E0F4041800080233F0FC040000080AC
:101260002340104040800010234110C05010001057
:0612700023FE10D0500027
:00000001FF
