:400000000206CE008F828E83E0540100000070F82278FFE4F6D8FD02078BBB010689828A83E0225002E722BBFE02E32289828A83E49322BB010689828A83F0225002F72250
:40004000BBFE01F322EF8DF0A4A8F0CF8CF0A428CE8DF0A42EFE22BC000BBE0029EF8DF084FFADF022E4CCF875F008EF2FFFEE33FEEC33FCEE9DEC984005FCEE9DFE0FD530
:40008000F0E9E4CEFD22EDF8F5F0EE8420D21CFEADF075F008EF2FFFED33FD4007985006D5F0F222C398FD0FD5F0EA22C5F0F8A3E028F0C5F0F8E582158270021583E038AF
:4000C000F022BB010A89828A83F0E5F0A3F0225006F709A7F01922BBFE06F3E5F009F31922EF2BFFEE3AFEED39FDEC38FC22E88FF0A4CC8BF0A42CFCE98EF0A42CFC8AF041
:40010000EDA42CFCEA8EF0A4CDA8F08BF0A42DCC3825F0FDE98FF0A42CCD35F0FCEB8EF0A4FEA9F0EB8FF0A4CFC5F02ECD39FEE43CFCEAA42DCE35F0FDE43CFC2275F00833
:40014000758200EF2FFFEE33FECD33CDCC33CCC58233C5829BED9AEC99E58298400CF582EE9BFEED9AFDEC99FC0FD5F0D6E4CEFBE4CDFAE4CCF9A88222B800C1B90059BAC2
:40018000002DEC8BF084CFCECDFCE5F0CBF97818EF2FFFEE33FEED33FDEC33FCEB33FB10D703994004EB99FB0FD8E5E4F9FA227818EF2FFFEE33FEED33FDEC33FCC933C937
:4001C00010D7059BE99A4007EC9BFCE99AF90FD8E0E4C9FAE4CCFB2275F010EF2FFFEE33FEED33FDCC33CCC833C810D7079BEC9AE899400AED9BFDEC9AFCE899F80FD5F0EA
:40020000DAE4CDFBE4CCFAE4C8F922EF5BFFEE5AFEED59FDEC58FC22EF4BFFEE4AFEED49FDEC48FC22EB9FF5F0EA9E42F0E99D42F0E89C45F022E8600FEFC333FFEE33FE89
:40024000ED33FDEC33FCD8F122BB010789828A830202695005E9F80204F0BBFE05E9F80204FC89828A83020508E0FCA3E0FDA3E0FEA3E0FF22E0F8A3E0F9A3E0FAA3E0FB4F
:4002800022ECF0A3EDF0A3EEF0A3EFF022A42582F582E5F03583F58322E0FBA3E0FAA3E0F922F8E0FBA3A3E0F925F0F0E582158270021583E0FA38F022EBF0A3EAF0A3E9B5
:4002C000F022D083D082F8E4937012740193700DA3A393F8740193F5828883E4737402936860EFA3A3A380DFE5092582F582E5083583F583B508048582092210AF0685822F
:4003000009F50822858209F508D2AF22EC8EF0A4CCC5F0CCCDF8EFA4CEC5F02DFDE43CFCE8A42EC8C5F03DFDE43CFCEFA4FFE5F028FEE43DFDE43CFC22E709F608DFFA80AC
:4003400046E709F208DFFA803E88828C83E709F0A3DFFA8032E309F608DFFA806EE309F208DFFA806688828C83E309F0A3DFFA805A89828A83E0A3F608DFFA804E89828A19
:4003800083E0A3F208DFFA804280D280FA80C680D4805580F28029801080A680EA809A80A880DA80E280CA802988848C8589828A83E493A30586F0A30586DFF5DEF3800B13
:4003C00089828A83E493A3F608DFF9ECFAA9F0EDFB2288848C8589828A83E0A30586F0A30586DFF6DEF480E389828A83E493A3F208DFF980D688F0EF60010E4E60CD88F0DE
:40040000ED2402B4040050C3F582EB2402B4040050B9232345822390038973E709F60870FA8046E709F20870FA803E88828C83E709F0A370FA8074E309F60870FA806CE389
:4004400009F20870FA806488828C83E309F0A370FA805889828A83E0A3F60870FA804C89828A83E0A3F20870FA804080D280FA80C680D4805180F28027801080A680EA80D3
:400480009A80A880DA80E280CA802788848C8589828A83E493A30586F0A3058670F5800B89828A83E493A3F60870F9ECFAA9F0EDFB2288848C8589828A83E0A30586F0A3ED
:4004C000058670F680E589828A83E493A3F20870F980D888F0ED2402B4040050CEF582EB2402B4040050C4232345822390046B73E6FC08E6FD08E6FE08E6FF22E2FC08E2D2
:40050000FD08E2FE08E2FF22E493FC740193FD740293FE740393FF2290480074F1F07B007A4679E8121031EF4405FD7B007A4679E812103D1209ED7B017A507903121031B8
:40054000EF4402FD7B017A50790312103D7B017A507913121031EF4402FD7B017A50791312103D9043A0E0FFEF4440FF9043A0EFF09043C2E0FFEF4410FF9043C2EFF07BE5
:40058000087A1079E0C003C002C0017B007A51790290005E1202B9D001D002D0037F087E00120E3B7B087A1079E8C003C002C0017B007A51791290005E1202B9D001D002D5
:4005C000D0037F087E00120E3B7B087A1079F0C003C002C0017B007A5179C290005E1202B9D001D002D0037F087E00120E3B7B087A1079F8C003C002C0017B007A5179F285
:4006000090005E1202B9D001D002D0037F087E00120E3B7B087A117900C003C002C0017B007A51792290005E1202B9D001D002D0037F087E00120E3B7B087A117908C00398
:40064000C002C0017B007A51794290005E1202B9D001D002D0037F087E00120E3B7B087A117910C003C002C0017B007A51795290005E1202B9D001D002D0037F087E00122F
:400680000E3B904689743AF09048007431F012081A90480074B1F0120DBF7B007A4379A0C003C002C0017B007A4379B090005E1202B9D001D002D0037F0E7E00120E3B9069
:4006C00043B0E0FFEF54FDFF9043B0EFF02275930078007583467582E8E04401F0009046ECE0F99046FAE0FAB903225420B40012B8001AEA901FFFF07401901FFEF0904614
:40070000F6F0901FFEE06005901FFFE0FA90480074C0F07581099076BCE4F0A3F0A3F0A3F0907010F0907019F0907020F09076007410F0907604E4F0A3F0A3F0A3F09078DD
:40074000007800087400F0A37408F0E8B8040274FFA3F0A37422F0A374BCF0A37476F0A3E4F0A3E81475F008A4F0A3B804D59070107401F0907014F07E707F181200049082
:400780007010F0EA900054F0020011750820750900120518120CB50207D5020F09E493A3F8E493A34003F68001F208DFF48029E493A3F85407240CC8C333C4540F4420C8D9
:4007C000834004F456800146F6DFE4800B0102040810204080900D87E47E019360BCA3FF543F30E509541FFEE493A360010ECF54C025E060A840B8E493A3FAE493A3F8E469
:4008000093A3C8C582C8CAC583CAF0A3C8C582C8CAC583CADFE9DEE780BE7E007F5990005DEEF0A3EFF07B007A4079807F0B7E007D187C00120FF49043007402F0904000B6
:400840007408F09042007403F07B0C7A0179081210319046A1EFF07B007A4279227D087C001210167B007A4279207D517C1012101690005FE4F07F197E007D007C009000D8
:400880005912028190005DE0FEA3E0FF8F828E83120269EC4D4E4F604E90005FE0FFEF64036044904225E0FFEF5401FF7E0090005FE0FEEE25E0FEEE4FFFEF5403FF9000AC
:4008C0005FEFF07FE07E017D007C00120E009000591202697BFF7AFF79FF78FF1200E1900059120281809D7B007A4079047D037C01121016904004E4F09040047407F0908F
:400900004006E4F09040087448F0904004E4F09040017402F09043A2E0FFEF4401FFEFF022900059E4F07F05120B62EF20E7077D807F05120C4C7F07120B62900059EFF03D
:4009400090006FE4F090006FE0FFEFC394035020900059E0FFC0077F07120B62AE07D007EF4EFF900059EFF090006FE004F080D5900059E0FFEF5405FFEF600E900059E08C
:40098000FFEF4403FF900059EFF0900059E0FFEF30E159900059E0FFEF30E03490006FE4F090006FE0FFEFC39410500D7F21120B6290006FE004F080E87F0F120B62EF4421
:4009C00020FD7F0F120C4C7F0F120B62EF20E5F77F21120B6290006CEFF090006CE0FF12100690006DE475F0011200AC227F007E007D007C009000701202819076007410B1
:400A0000F09070107401F0907019E4F09078027401F090780374A3F07B027A7879007D087C021210187B027A787904C003C002C0017BFF7A10796EAC02AD01D001D002D0D2
:400A4000031210187B027A7879067D087C781210187B027A7679047D107C001210187B027A7679067D007C001210189070297409F0907039740BF0907069741AF0907079AE
:400A8000741FF09070147401F0907018E0FFEF20E0F7907028E0FFEF20E0F7907038E0FFEF20E0F7907068E0FFEF20E0F7907078E0FFEF20E0F7227D017F1D120C4C7D02E4
:400AC0007F28120C4C7D3C7F32120C4C7D147F35120C4C7F0D120B62EF4440FD7F0D120C4C7F017E007D007C00120BE07D087F26120C4C7DA57F0F120C4C7F0F120B62EF53
:400B000030E50680F58002800E7D007F39120C4C7DA47F10120C4C7D0F7F03120C4C7D487F06120C4C7D557F1B120C4C7D057F1C120C4C7D0E7F12120C4C7D057F11120C1D
:400B40004C7F647E007D007C00120BE07D807F16120C4C7D057F15120C4C7D087F1E120C4C2290005AEFF090005BE4F07F00120E6F120F267E00EF30E1F790005AE0FF127B
:400B80000EEA120F267E00EF30E3F7120EA0EFD394004003120FCA7F017E007D007C00120BE0120F267E00EF30E1F77F00120EEA120F267E00EF30E3F7120EA0EFD394002E
:400BC0004008120FCA90005BEFF07F01120E6F7F017E007D007C00120BE090005BE0FF2290FFFC1202E81202817F007E807D007C00850883850982120275D3120225403052
:400C0000900055120269120E00850883850982C083C082120269C3EF9400FFEE9480FEED9400FDEC9400FCD082D08312028180B990004B120269850883850982120275124B
:400C400000EE120E009000041202E82290005AEFF090005BEDF07F00120E6F120F267E00EF30E1F790005AE0FFEF4480FF120EEA120F267E00EF30E3F7120FCA7F017E002D
:400C80007D007C00120BE0120F267E00EF30E1F790005BE0FF120EEA120F267E00EF30E3F7120FCA7F01120E6F7F017E007D007C00120BE022900065747FF090006674801E
:400CC000F0900059747FF0900059E0FFEF6021900059E0FFEF14FF900059E0FE75F008EE90780012028DEFF0900059E014F080D7900059E0FF75F008EF90780012028DE4B7
:400D0000F022900059E4F0906569E0FFEF5420FF7E00EF4E70047F0180027F00EF7007906558E0FF80E1120FDF900059EFF0906598E0FFEF4403FFEFF0906598E0FFEF54AB
:400D4000FCFFEFF0900059E0FF120F5C22900059E4F0120FDF900059EFF0906498E0FFEF4420FFEFF0906598E0FFEF4410FFEFF0906599E0FFEF4410FFEFF0900059E0FF2E
:400D8000120F5C1210252242006D00004100740041007500440050016E360044004B00005DC041004F184400552EE000004400610000000043006700000041004900007BAB
:400DC0000C7A0179CF121031900059EFF0900059E0FFEF5407FF90586EEFF0900059E0FFEFC4540FFFEF540FFF90586FEFF09058767444F022000000000000000000000037
:400E0000EC4D4E700D78FCEF24E950032840FD2200007BF178DA0000EF28FF78FFEE38FEED38FDEC38FC50E7EF2BFFEE38FEED38FDEC38FC40F22205020304758600EF4E63
:400E40006027EF60010E75930090005EE0F595A3E0F585A3E0F5848B938A838982E0A30586F0A31586DFF6DEF4E4F593F5952290005CEFF0905150E0FFEF54F7FF90005D02
:400E8000EFF090005CE0FFEF33333354F8FFEF5408FF90005DE0FEEF4EFF905150EFF02290005CE4F0906569E0FFEF5420FF7E00EF64204E70047F0180027F0090005CEFC4
:400EC000F090005CE0FF227FFF121006120F8B7F647E007D007C00120BE0120AB77F001210067D017F01120C4C2290005CEFF0906568E0FFEF5404FF7E00EF4E60F190007F
:400F00005CE0FF906548EFF022120EC7120921120F74EF60F7120EC77FFA7E007D007C00120BE080E722906568E0FFEF54EFFF906569E0FEEF4EFF90005CEFF090005CE061
:400F4000FF22906488740FF0120D02120FA0120FB5906588E4F0906589E4F022EF54016004D2AF8002C2AFEF5402FF9044F4E054FD4FF0229051F1E0FFEF5408FF7E00EFC2
:400F80007803CEC313CE13D8F9FF22900075E0FFEF7009120F429000757401F0120D4D22900059E4F0906568E0FF900059EFF0900059E0FF22900059E4F0906569E0FF9063
:400FC0000059EFF0900059E0FF2290005CE4F0906558E0FF90005CEFF090005CE0FF229044F4E0F84402F0E85402FF10AF012274014FFF228B938A838982EFF0A3EEF0A318
:40100000EDF07593002290005AEFF090005AE0FF90647CEFF0228B938A838982EDF0A3ECF0759300229043A2E0FFEF4401FFEFF0228B938A838982E0759300FF228B938A7B
:40104000838982EDF07593002201000000000000000100000000000100010000000800000001000000080001000100000001000823021049760800082303105176100008A2
:401080002304105976280008230510617630000523061069702000052307106970300005230810697060000523FE106970700010220A00705130001022FE00705160018045
:4010C000220C007000000180220D007002000180220E007004000200220F0070060000802210007008800180221100700A000180221200700E00038022130070140001809A
:40110000221400701A0000802215007041000080221600704200008022170070430001002218007044000080221900704600018022FE007047000007231B0000521000074B
:40114000231C000852200006231D001052600007231E00185278002023FE02A0647000802320002008000080232100A00C000080232201200C800080232301A01800008001
:401180002324022018800080232502C04D000080232603404D800080232703C04C000080232804404C800080232904C046800080232A054045000080232B05C04580008045
:4011C000232C06401B800080232D06C019000080232E074019800080232F07C0178000802330084009000080233108C009800080233209400B800080233309C00580008099
:4012000023340A400D00008023350AC00D80008023360B400380008023370BC00F80008023380C400180008023390CC049000080233A0D4049800080233B0DC04880008077
:40124000233C0E4043800080233D0EC042800080233E0F4041800080233F0FC0400000802340104040800010234110C05010001023FE10D0500000000000000000000000B4
:40128000000000000000000000000000000000000000000000000000000000000000000000000000000000000000000000000000000000000000000000000000000000002E
:4012C00000000000000000000000000000000000000000000000000000000000000000000000000000000000000000000000000000000000000000000000000000000000EE
:4013000000000000000000000000000000000000000000000000000000000000000000000000000000000000000000000000000000000000000000000000000000000000AD
:40134000000000000000000000000000000000000000000000000000000000000000000000000000000000000000000000000000000000000000000000000000000000006D
:0200000480007A
:400000000A0C0000000000000A0C0000000000000100000000000000000000000800000098000200133364C43800C0009A2000D02155D8AA02940069FC0E03009A00000063
:40004000000000000200980098000200000000000F00E00F130013F000080A800000000000000000000000000000000000000000000000000000022C04040004000000016B
:40008000000000000000000000000000000000000000000000000000000000000000000000000000000000000000000000000000060001000400000004000000010002002E
:4000C000000000000800000010000000200000001000200007000800000020000000450000000000000000000000000000000000000000000000000004000004000000011B
:4001000000000000000000000000000000000000000000000000000000000000000000000001000000020000000400000000000000080000000000000000000000000000B0
:400140000000000000000000000000000000000000040001000200080000000000000055000000000000000000000000000000000000000000000000000400000000000116
:4001800000000000000000000000000000000000000000000000000000000000000000000402800D0741380204000020840000100A02106401020068561D0900841D00006A
:4001C000601D000080800400841D0000000D0010080F7F100260808008000002000051444601500003BECD0F1FFFFFFF2200F0080400000009000000040404040000000191
:400200000000C00040011011C00100114001400100000000000000000000000000000000000000000000000000000000000000000000000000000000000000000000000048
:400240000000000000000000000000000000000000000000000000000000000000000000000000000000000000000000000000000000000040000000000000040000000139
:4002800000000000000000000000000000000000000000000000000000000000000000000000000000000000000000000000000000000000000000000F000000000000002F
:4002C00000000000000000000000000000000000000000000000000000000000000000000000000000000000000000000000000000000000000000000000000000000000FE
:40030000000000000000000000000000000000000040000000000000000000000000000000000000000000000000000000000000000000000000000000000000000000007D
:4003400000000000000000000000000000000000008000000000000000000000000000000000000000000000000000000000001000000000004000000000000000000000AD
:400380000000000000000000000000000000000000000000040000000000000000000000000000000000000000000000080000000000000000000000000000000000000031
:4003C00000000000000000000000002000000000000000000000000000000000000000000000000000000000000000000000000000000000000000000000000000000000DD
:4004000000000000000000000000000000000000000000000000000000000000000000000000000000000000000000000000000000000000000000000000000000000000BC
:40044000000000000000000000000000000000000000000000000000000000000000000000000000000000000000000000000000000000000000000000000000000000007C
:400480000000080000000000000000000000000000000000000000000000000000000000000000000000000000000000000000000000000000000000000000000000000034
:4004C00000000000000000000000000000000000000000000000000000000000000000000000000000000000000000000000001040010000000000000000000000000000AB
:4005000000000000000000000000000000000000000000000000000000000000000000000000000000000000040000000400000000000000000000000000000000000000B3
:40054000000000000000000000000000000000000000000000000000000000000000000000000000000000000000000000000000000000000000000000000000000000007B
:40058000000000000000000000000000000000000001800040000000000000000000001000000000000000000000000000000000000000000000000000000000000000006A
:4005C000000000000000000000008000000000000000000000000000000000000000000000000000000000000000000000000000000000000000000000000000000000007B
:4006000000000000000000000000000000000000000000000700040000000000000000000100000000000000000000000000000000000000000000000000000000000000AE
:4006400000000000000000000000000000000000000000000000000000000000000000000000000000000000000000001000000000008400001000000000000000000000D6
:400680000000000000000000000000000000000000000000000000000000000000000000000000000000000000000000000002000000000000000000000000000000000038
:4006C00000000000060008020000000000022900000000000001001400000000000066400000000010118000200000102000010A00000000008104100000000004220080CD
:400700000000000010820000000000C00005084000000000000040540000000020044200100040080000800000000000000000000000000000000000000000000000000048
:40074000000000000000100000008000000000000600010000000000008108160000000020820C0A000000100000000000000000000000000000000000000000000000007B
:40078000F000F000700000000000F000F000F000D00030000000F0001E0000000000000000008000000000000000000000000000000000000000000000000000000000008B
:4007C00000000000000000000000000000000000000000000000000000000000000000000000000000000000000000000000000000000000000000000000000000000000F9
:400800000000000000000000000000000000000000000000000000000000000000000000000080000000080000000000000000000000000000000000000000000000000030
:400840000000000016000002000000000002092000000000000000140000000014870000000000000040002000040800000000000000000000010420000000000480000071
:4008800000000000004001000000000000000000000000000000000000000000000000000000000000000100000000000100011E0000000000800002000000000000000054
:4008C000000000000000000000000000000000000000000000000000000000000000000020000C00008200100000000000000000000000000000000000000000000000003A
:40090000F000F0006000000000000000E0005000000000000000000080000000000000000000000000000000000000000000000000000000000000000000000000000000C7
:40094000000000000000000000000000000000000000000000000000000000000000000020000C000082001000000000100000000000220000000001000000000000000086
:4009800000000000000000000000000000000000000000000000000000000000000000000000000000000000080040000000000000000000000000000000000000000000EF
:4009C00000000000000000000000000000000000000000000000000000000000000000000000000000000000000000000000000000000000000000000000000000000000F7
:400A00000000000000000000000000000000000000000000000000000000000000000000000000000000000000004000000000000000000000000000000000000000000076
:400A40000000000000000000000000000082082000000000000000540000000000000845220022000000000000000000000000000200000000000C000000150000000000C4
:400A8000000000000000000000000000000000000000000000000000000000000000000000000000000000000000000000800054000000000200150000000000000000004B
:400AC000000000002040000001000040000000000000000000000008000000000000000000000000000000000000000000000000000000000000000000000000000000004D
:400B00000000F000E000000000000000010007000000000000000000000000000000000000000000000080000000000000000000000000000000000000000000000000005D
:400B40000000000000000000000000000000000000000000000000000000000000000000000000000000000000000000000000000000000000000000000000000000000075
:400B800000000000000000000000000000000000000000000000000000000000000000000000000000008000000000000000000000000000000000000000000000000000B5
:400BC00000000000000000040000000000000000000000000000000000000000000000000000000000000000000000000000000000000000000000000000000000000000F1
:400C000000000000000000000000000000000000000000000000000000000000000000000000000000000000000000000000000000000000000000000000000000000000B4
:400C40000000000000000000000000000000000000000000000000000000000000000000000000000000000000000000000000000000000000000000000000000000000074
:400C8000000000000000000000000000000000000000000000000000000000000000000000000000000008000000000000000000000000000000000000000000000000002C
:400CC00000000000000000000000000000000000000000000000000000000000000000000000000000000000000000000000000000000000000000000000000000000000F4
:400D000000000000000000000000000000000000000000000000000000000000000000000000000000000000000000000000000000000000000800000000000000000000AB
:400D4000000000000000000000000000000000000000000000000000000800000000000000000000000000000000000000000000000000000000000000000000000000006B
:400D80000000000000000000000000000000000000000000000000000000000000002000000000000000000000000000000000000000000000000000000000000000000013
:400DC00000000000000800000010000000000000000000000010000000000000000000000000000000000000000000000000000000000000000000000000000000000000CB
:400E000000000000000000000000000000000000000000000000000000000000000000000000000000001000000000000000000000000000000000000000000000000000A2
:400E40000000000000000000000000000000000000000000001000000000000000000000000000000000000000000000000000000000000000000000000000000000000062
:400E80000000000000000000000000000000000000000000000000000000000000000000000000000000000000000000000000000000000000000000000000000000000032
:400EC00000000000000000000000000000000000000000000010000000000000000000000000000000000000000000000000000000000000000000200000000000000000C2
:400F000000000000000000000000000000000000000000000000000000000000000000000000000000000000000000000000000000000000000000000000000000000000B1
:400F40000000000000000000008000000000000000000000001000000000000000800000000000000000002000000000000000000000000000000000000000000000000041
:400F80000000000000000000000000000000000000000000000000000000000000000000000000000000000000000000000000000000000000000000000000000000000031
:400FC00000000000000000000000000000000000000000000000000000000000000000000000000000000000000000000000000000000000000000000000000000000000F1
:4010000000000000000000000000000000000000000000040000002000800000001000000000000000000000000000000000000000000000000000000000000000000000FC
:40104000000000000000000400000000000000000000000000000000000000000000000000000000000000000000000000000000000000000000000000000000000000006C
:401080000000000000000000000000000000000000000000E00020000000000000000000000000000000100000000000000000000000000000000000000000000000000020
:4010C0000100000000000000000000000100000001000000000000000000000001000100007F7F0000000000100000000000000000010100010000000808000000000000CA
:40110000000F0F000F000000000F0F000F00000000090900010000000000000000000000000000000000000000000000000000000000000000000000000000000000000042
:40114000000000000000000000000000000000000000000000000000000000000000000000000000000000000000000000000000000000000000000000000000000000006F
:40118000000000000000000000000000000000000000000000000000000000000000000000000000000000000000000000000000000000000000000000000000000000002F
:4011C00000000000000000000000000000000000000000000000000000000000000000000000000000000000000000000000000000000000000000000000000000000000EF
:4012000000000000000000000000000000000000000000000000000000000000000000000000000000000000000000000000000000000000000000000000000000000000AE
:0200000490006A
:0400000000000005F7
:0200000490105A
:04000000AFAC90BC55
:0200000490303A
:0200000098C6A0
:0200000490501A
:0C00000000011E02806903011E0B192F75
:0200000490402A
:4000000000000000000000000000000000000000000000000000000000000000000000000000000000000000000000000000000000000000000000000000000000000000C0
:00000001FF
