:4000000000800020110000008D0200008D02000080B500AF024A034B1B68136000F062F9BC760040FA46004010B5054C237833B9044B13B10448AFF300800123237010BD9E
:400040008881FF1F0000000020220000084B10B51BB108480849AFF300800848036803B910BD074B002BFBD0BDE81040184700BF00000000202200008C81FF1F0881FF1FBD
:400080000000000080B588B000AF0023FB7600F043FD01F0FDF80023BB7700237B7700233B770023FB7700F04FFD754801F08AF901F04CF90346FB76FB7E303B482B00F200
:4000C000A98001A252F823F0ED010000F5010000150200001502000015020000150200001502000015020000150200001502000015020000150200001502000015020000DF
:400100001502000015020000150200001502000015020000FD010000150200000F02000015020000150200001502000015020000150200001502000015020000150200006E
:40014000150200001502000015020000150200001502000003020000150200001502000015020000150200000902000015020000150200001502000015020000150200002D
:400180001502000015020000150200001502000015020000FD010000150200000F0200001502000015020000150200001502000015020000150200001502000015020000EE
:4001C0001502000015020000150200001502000015020000030200001502000015020000150200001502000009020000002001F0AFFB10E0012001F0ABFB0CE001237B77BB
:4002000009E00123BB7706E00023BB7703E001233B7700E000BF012000F0A6FC0346002B2DD000F0C9FC0346184600F003FD03467B617B7F002B02D1BB7F002B0CD03B1DC6
:40024000184610497A6901F0E1FB3B1D184601F0B9F800237B7712E03B7F002B0FD0FB7F3A1D104608491A4601F0D0FB3B1D184601F0A8F8FB7F0133FB7700233B7717E726
:4002800024220000382200004822000080B400AFFEE700BF80B584B000AF78600F4B1A687B6813441A460E4BD31A802B09DC0B4B1B68FB60094B1A687B681344074A136069
:4002C00007E001F063FB02460C2313604FF0FF33FB60FB6818461037BD4680BD0C81FF1FD081FF1F80B586B000AF224B7B61224B3B61204B7B6135E03B691B68FB603B69C2
:400300005B68BB603B699B683B6000237B600CE0FB681A68BB681A60BB680433BB60FB680433FB607B6804337B607A683B689A42EED13B69DB683B6000237B6008E0BB6827
:4003400000221A60BB680433BB607B6804337B607A683B689A42F2D13B6910333B617B69013B7B617B69002BC6D101F015FBFFF789FEFEE7010000000C23000080B582B034
:4003800000AF174B174A1A60174A174B1B6843F40073136000237B600FE07B68032B04D8124A7B6852F8233000E0114B11497A6841F822307B6801337B607B682F2BECD941
:4003C0000D4B1B78DAB20D4B1A700D4B094A1A6000F090F90B4B00221A600837BD4680BD0CED00E00004FA0514ED00E0000000008D0200000080FF1FBC7600400481FF1F96
:4004000008ED00E00081FF1F80B582B000AF78603960786800213A6801F0EFFA0837BD4680BD00BF80B584B000AFF860B9607A60F868B9687A6801F0D5FA1037BD4680BDF9
:4004400080B483B000AF0346FB71FEE780B487B000AF7860396000233B6100237B6127E07B699B007A6813441B68BB60BB68FB73BB6823F0FF03BB6014E03B695B003A68AD
:4004800013441B781A46BB68134419463B695B003A6813445B780B703B6901333B61FB7B013BFB73FB7B002BE7D17B6901337B617B69122BD4D91C37BD465DF8047B704743
:4004C00080B582B000AF3F4B00221A803E4B50221A703E4B4FF49C721A803D4B18221A703C483D490422FFF79DFF3C4B02221A704FF0402308221A70394B03221A70394B57
:40050000394A1278D2B21A70384B08221A80384B41F251221A800023FB7019237B6014E0FB785B00DAB2334B1B78DBB203F00103DBB21343DBB203F00303FB704FF4F07097
:4005400001F072F97B68013B7B607B68002B02D0FB78032BE4D17B68002B02D10320FFF76FFF254B4FF480721A80234B07221A70224B00221A70224B48221A701E4B002222
:400580001A70204B02221A701F4B04221A701F4A1E4B1B78DBB243F00303DBB213701C4A1B4B1B78DBB243F00103DBB21370194A184B1B78DBB263F07F03DBB21370083706
:4005C000BD4680BD8040004082400040844000408640004000410040440300480043004000420040A14600400801004922420040204200402542004004400040064000402A
:4006000008400040014000400B400040A2430040A1430040A043004080B483B000AF0E4B1B78FB710D4AFB7903F00703DBB213700B4AFB791B09DBB213700A4B01221A7075
:40064000094B01221A70094B44221A700C37BD465DF8047B704700BFCF0100496E5800406F5800402D510040005B00407658004080B483B000AF0346FB71FB79012B0ED8C7
:40068000FB79094A52F82330FA79074951F822201178FA790548825C0A43D2B21A700C37BD465DF8047B7047602200006822000080B483B000AF0346FB71FB79012B10D8D6
:4006C000FB790A4A52F82330FA79084951F822201178FA790648825CD243D2B20A40D2B21A700C37BD465DF8047B7047602200006822000080B586B000AF72B6494A494BE7
:400700001B78DBB243F00403DBB213700023FB7513E0FA7D13465B0013445B00424A13443B613B691A683B699B889BB210461946FFF76AFEFB7D0133FB75FB7D082BE8D998
:400740000023FB751CE0FA7D13469B0013445B00364A1344FB60FB681B68BB60FB685B687B60FB681A7A5B7A1B0213437B807B88B86879681A46FFF755FEFB7D0133FB7596
:40078000FB7D002BDFD04FF090402949FFF75EFE284B0A221A70284A274B1B78DBB243F00203DBB21370254A244B1B78DBB243F00203DBB21370224A214B1B78DBB243F02E
:4007C0004003DBB213701F4A1E4B1B78DBB243F01003DBB213701C481C490A22FFF722FE1B481C490822FFF71DFE1B4A1A4B1B78DBB243F00803DBB21370184B60221A70A9
:40080000FFF75EFE154B80221A70154B01221A70FFF702FF13480A490E22FFF703FE1837BD4680BDE84600406C220000A42200004C000048835800400350014013500140C9
:40084000A0430040C2430040C051004030030048225100403C030048224300400048004004000840B043004080B582B002AF414B01221A70404B00221A70102000F0AAFE0E
:40088000102000F08DFF1D20072101F03FF83B4B04221A703A4B00221A703A4B00221A70394A394B1B78DBB243F01803DBB21370364B00221A70364B00221A70354B0022E6
:4008C0001A70354B0A221A70344B00221A70344B00221A70334B12221A70334B13221A70324B00221A70324B14221A700123009303204FF400414FF40042082300F0BEFB4C
:4009000002230093002049F2DA014FF40042102300F0B4FB03230093002049F2DA014FF40042102300F0AAFB04230093002049F2DA014FF40042102300F0A0FB1D4A0D4B44
:400940001B78DBB2013B1C499B000B449B7813701A4A084B1B78DBB2013B174931F823301380044B1B78DBB2184600F083F9BD4680BD00BF1081FF1FA481FF1F965800405C
:40098000975800409E580040075B004093580040885B0040895B004080580040815800408358004088580040895800408D580040014E00400E4E0040A881FF1F0C4E004000
:4009C00080B582B000AF00F04EFF0346FB71444B1B78BB71434A434B1B78DBB243F00103DBB213703F4A3F4B1B78DBB243F01003DBB213703C4A3C4B1B78DBB243F0010332
:400A0000DBB21370384A384B1B78DBB243F01003DBB21370354A354B1B78DBB243F00203DBB21370324A324B1B78DBB243F00203DBB213702F4A2F4B1B78DBB243F0030317
:400A4000DBB21370032000F027FF284A274B1B78DBB223F00203DBB21370254A244B1B78DBB223F00203DBB21370234A224B1B78DBB243F00603DBB21370204B7A221A7004
:400A80001F4A1F4B1B78DBB243F00103DBB213701C4A1C4B1B78DBB243F00103DBB21370194A194B1B78DBB243F00103DBB21370164A164B1B78DBB243F00103DBB2137072
:400AC000134B4FF000521A60124B4FF000521A60FB79184600F0CBFE0837BD4680BD00BF1081FF1FAA430040BA430040F8460040F9460040915800407758004082580040F4
:400B0000A1430040B1430040A2430040B243004080E200E000E100E080B500AF084B1B78002B09D1074B1B78DBB2002B01D1FFF79BFE034B01221A70FFF742FF80BD00BF05
:400B4000A681FF1FA781FF1F80B400AF054A054B1B78DBB243F00103DBB21370BD465DF8047B7047004E004080B485B000AF0346FB710E4B1B78DBB2002B03D00C4B1B78B7
:400B8000FB7305E00B4B1B78DBB203F00103FB73FB7B012B02D0FB79002BEAD0FB7B18461437BD465DF8047B704700BFA581FF1FA481FF1F014E004080B483B000AF174B40
:400BC0001B78DBB203F003037B717B79012B03D8134B1B88FB8011E0114B1B78DBB2FB80104B1B78DBB29BB21B029AB2FB881343FB807B79032B01D10B4B1B780B4B1B7846
:400C0000DBB2002B02D00A4B00221A70FB881BB218460C37BD465DF8047B7047144E0040104E0040114E0040124E0040A581FF1FA481FF1F80B485B000AF78600B4B1B68DB
:400C40007A68D31A7B607B684FF47A7202FB03F2074B1B6892FBF3F3FB81FB891BB218461437BD465DF8047B704700BFC881FF1FC481FF1F80B582B000AF0346FB71C24B19
:400C800000221A70FB79012B65D1C04B38221A70BF4B04221A70BF4B06221A70BE4B00221A70BE4B00221A70BD4B0F221A70BD4B00221A70BC4B00221A70BC4B00221A7006
:400CC000BB4B01221A70BB4B14221A70BA4B04221A70BA4B18221A70B94B00221A70B94B11221A70B84B12221A70B84B00221A70B74B01221A70B74B11221A70B64B192272
:400D00001A70B64B97221A70442000F06DFAB44B58221A70B34B00221A70B34B05221A70B24B02221A70B24B00221A70B14B00221A70002000F07EFBAF4B2A221A60242045
:400D4000012100F08BFB9520012100F06DFC1D20AA4900F0B3FDFB79022B66D18B4B38221A708B4B04221A708A4B06221A708A4B00221A70894B00221A70894B3F221A707C
:400D8000884B00221A70884B00221A70874B00221A70874B01221A70864B50221A70864B27221A70854B2C221A70854B00221A70844B55221A70844B5A221A70834B052209
:400DC0001A70834B01221A70824B11221A70824B19221A70814B97221A70442000F004FA7F4B58221A707F4B00221A707E4B05221A707E4B02221A707D4B00221A707D4B00
:400E000000221A70002000F015FB7B4B4FF47A421A600820012100F021FB2520012100F003FC1D20764900F049FDFB79032B66D1564B38221A70564B04221A70554B062252
:400E40001A70554B00221A70544B00221A70544B3F221A70534B00221A70534B00221A70524B00221A70524B01221A70514B50221A70514B27221A70504B2C221A70504B8B
:400E800000221A704F4B55221A704F4B5A221A704E4B05221A704E4B01221A704D4B11221A704D4B19221A704C4B97221A70442000F09AF94A4B58221A704A4B00221A706E
:400EC000494B05221A70494B02221A70484B00221A70484B00221A70002000F0ABFA464B4FF47A421A600820012100F0B7FA2520012100F099FB1D20424900F0DFFCFB7951
:400F0000042B40F0A880214B38221A70204B04221A70204B06221A701F4B00221A701F4B00221A701E4B3F221A701E4B00221A701D4B00221A701D4B00221A701C4B01225B
:400F40001A701C4B50221A701B4B27221A701B4B2C221A701A4B00221A701A4B55221A70194B5A221A70194B05221A70184B01221A70184B11221A70174B19221A70174B5E
:400F800097221A7044203FE0A581FF1F004E0040024E0040034E0040044E0040054E0040064E0040084E0040094E00400A4E0040144E004084580040855800408658004001
:400FC000875800408A5800408B5800408C5800408E5800408F580040905800409158004094580040955800409A5800409B5800409C5800409D580040C481FF1F61120000CE
:401000006D1200007912000000F0EEF8134B58221A70134B00221A70124B05221A70124B02221A70114B00221A70114B00221A70002000F0FFF90F4B4FF47A421A60082038
:40104000012100F00BFA2520012100F0EDFA1D20094900F033FC0837BD4680BD94580040955800409A5800409B5800409C5800409D580040C481FF1F8512000090B587B051
:4010800000AF0446084611461A462346FB710346BB800B467B801346BB7197F82830002B00F08A8097F82830042B00F28580FB79013B092B4AD801A252F823F0E5100000F4
:4010C0004D1100004D110000E51000004D1100004D110000FF100000191100004D11000033110000BB790F2B04D9364B1B78DBB2FB752EE0344B1B78DBB2FB7529E0BB79F2
:401100000F2B04D9314B1B78DBB2FB7521E0304B1B78DBB2FB751CE0BB790F2B04D92D4B1B78DBB2FB7514E02B4B1B78DBB2FB750FE0BB790F2B04D9284B1B78DBB2FB75FA
:4011400007E0274B1B78DBB2FB7502E00023FB7500BFBA8897F917305B0113443B617B883A6902FB03F3FB60FB68DB0BBB82BB790D2B11D8BB8ABA79C2F10E021341BB824F
:4011800097F82830013BBA790132D1B2154A9B0013440A469A7007E097F82830013B114A9B0013440F229A7097F82830013B0D49BA8A21F8232002E0002000F061FB1C372C
:4011C000BD4690BD180100491C010049190100491D0100491A0100491E0100491B0100491F010049A881FF1F80B584B000AF0346FB7100F038FB0346FB73164A154B1B7832
:40120000DBB243F00303DBB21370134A124B1B78DBB243F00303DBB21370104AFB791370032000F039FB0B4A0A4B1B78DBB223F00303DBB21370084A074B1B78DBB223F053
:401240000303DBB21370FB7B184600F010FB1037BD4680BDF8460040F94600409258004080B400AFBD465DF8047B704780B400AFBD465DF8047B704780B400AFBD465DF8BE
:40128000047B704780B400AFBD465DF8047B704780B500AF054B1B78002B04D100F008F8024B01221A7000F023F880BDB881FF1F80B400AF094B72221A70094B20221A70C2
:4012C000084B06221A70084B47221A70074B00221A70BD465DF8047B704700BF8A6500408B65004029650040396500408865004080B582B000AF00F0B6FA0346FB71104A5B
:401300000F4B1B78DBB243F02003DBB213700D4A0C4B1B78DBB243F01003DBB213700A4A094B1B78DBB243F01003DBB2137000F061FAFB79184600F09AFA0837BD4680BD6B
:401340009A6500409B6500409865004080B483B000AF0023FB710C4B1B78BB71BB7903F02003002B09D0094B1B78FB71BB7903F01E03002B01D00023FB71FB7918460C376D
:40138000BD465DF8047B70476B6500404A65004080B483B000AF0346FB7100BF074B1B78DBB203F00403002BF8D1054AFB7913700C37BD465DF8047B704700BF68650040D3
:4013C0004865004080B584B000AF78600023FB810B4B1B78002B10D009E0FB897A6813441B781846FFF7D4FFFB890133FB81FB897A6813441B78002BEFD11037BD4680BD27
:40140000B881FF1F80B582B000AF0023FB7106E0FB791846FFF74CF9FB790133FB71FB79012BF5D9024BFF221A700837BD4680BD1181FF1F80B582B000AF0346FB71FFF753
:40144000E1FFFB791846FFF713F9034AFB7913700837BD4680BD00BF1181FF1F80B584B000AF03460A46FB8013467B7100F0CCF80346FB7300F0A2F80346BB81FA88BB89D5
:401480009A4200F08780454B1B78DBB203F00103FB72FB7B002B20D1BB89002B02D0FB88002B1AD1BB89002B0BD13D4AFB8813803C4A3C4B1B78DBB223F04003DBB213705E
:4014C00068E0384A374B1B78DBB243F04003DBB21370334AFB8813805CE0FB7A002B33D0314B00221A70314B01221A70304B00221A70304A2F4B1B78DBB203F07F03DBB2FA
:401500001370284B1B78DBB203F00803002B02D0FB88002B18D1284ABB891380224B07221A7000BF204B1B78DBB203F00103002BF8D11A4A194B1B78DBB223F00103DBB2D9
:401540001370194B00221A70144B1B78DBB203F00103002B13D0184AFB881380124A7B79002B01D0032300E00123137000BF0E4B1B78DBB203F00103002BF8D10AE0084A84
:40158000FB8813800549054B1B78DAB2FB7A1343DBB20B701037BD4680BD00BFA24300408040004082400040014000401040004014400040084000400240004080B400AF86
:4015C000034B1B889BB21846BD465DF8047B70478040004080B483B000AF0346FB71094B084A1278D2B2D1B2FA7922F00702D2B20A43D2B2D2B21A700C37BD465DF8047BB4
:40160000704700BF8240004080B400AF054B1B78DBB203F00703DBB21846BD465DF8047B704700BF8240004080B584B000AF03460A46FB8013467B7100F0CCF80346FB73CC
:4016400000F0A2F80346BB81FA88BB899A4200F08780454B1B78DBB203F00103FB72FB7B002B20D1BB89002B02D0FB88002B1AD1BB89002B0BD13D4AFB8813803C4A3C4B4D
:401680001B78DBB223F04003DBB2137068E0384A374B1B78DBB243F04003DBB21370334AFB8813805CE0FB7A002B33D0314B00221A70314B01221A70304B00221A70304A4E
:4016C0002F4B1B78DBB203F07F03DBB21370284B1B78DBB203F00803002B02D0FB88002B18D1284ABB891380224B07221A7000BF204B1B78DBB203F00103002BF8D11A4AA4
:40170000194B1B78DBB223F00103DBB21370194B00221A70144B1B78DBB203F00103002B13D0184AFB881380124A7B79002B01D0032300E00123137000BF0E4B1B78DBB2C1
:4017400003F00103002BF8D10AE0084AFB8813800549054B1B78DAB2FB7A1343DBB20B701037BD4680BD00BFA1430040004100400241004001400040144000401040004089
:40178000084000400240004080B400AF034B1B889BB21846BD465DF8047B70470041004080B483B000AF0346FB71094B084A1278D2B2D1B2FA7922F00702D2B20A43D2B2AC
:4017C000D2B21A700C37BD465DF8047B704700BF0241004080B400AF054B1B78DBB203F00703DBB21846BD465DF8047B704700BF0241004080B400AF094A094B1B78DBB213
:4018000043F00203DBB21370064A064B1B78DBB243F00203DBB21370BD465DF8047B7047A2430040B2430040142816D902B4012114381049097811F0C001890904B40E4AE2
:40184000515C04BC00BF00BF00BF8841FDD500BF00BF02BC704700BF00BF70F10400FCD570470B050709EFF3108072B6704780F3108870470048004062180000AFF300806E
:4018800080B483B000AF0346FB7101BE0C37BD465DF8047B704700BF80B582B000AF0346FB80FB88044A127802FB03F31846FFF7BBFF0837BD4680BD1C81FF1F80B584B035
:4018C00000AF03463960FB710F4B1B68FB60FB791F2B02D90020FFF7D3FFFB7903F01F0310339B00FA6813441B68BB60FB7903F01F0310339B00FA6813443A681A60BB6815
:4019000018461037BD4680BD08ED00E080B582B000AF03460A46FB711346BB71BB79072B02D90020FFF7ACFFFB791F2B02D90020FFF7A6FFFB7903F01F0303F1604303F5DF
:401940006443BA795201D2B21A700837BD4680BD80B485B000AF0346FB710B4B1B78DBB223F00203FB730849FB795B00DBB203F00203DAB2FB7B1343DBB20B701437BD4691
:401980005DF8047B704700BF20510040014B1868704700BF8481FF1F0E4B70B51E460E4C0025E41AA410A54204D056F8253098470135F8E700F098FC084B094C1E46E41AD4
:4019C000A4100025A54204D056F8253098470135F8E770BDF4220000F4220000F4220000FC22000010B5431E0A44914204D011F8014B03F8014FF8E710BD03460244934264
:401A000002D003F8011BFAE7704700000EB400B54FF402719CB0ADF814106FF00041049107914FF6FF711DABADF81610084953F8042B02900690086802A9019300F064F8E0
:401A4000029B00221A701CB05DF804EB03B070478481FF1F2DE9F0478E688246B3420C469046994640D38A8912F4906F3AD02568096902236F1A656905EB450595FBF3F517
:401A80007B1C4B449D4238BF1D4653050FD5294600F030FB064698B121693A46FFF7A2FFA38923F4906343F08003A38113E02A4600F076FB064670B95046216900F0D6FAA2
:401AC0000C23CAF80030A3894FF0FF3043F04003A381BDE8F08726613E4426604E466561ED1BA560B14500D24E4632462068414600F0A0FAA36800209B1BA36023681E4441
:401B00002660BDE8F08700002DE9F0439DB003938B8906461C060D4690460CD50B6953B9402100F0E7FA2860286110B90C233360CCE040236B610023099320238DF8293042
:401B400030238DF82A3043461C4613F8012B1AB9B4EB08090FD002E0252AF5D1F8E73046294642464B46FFF775FF013000F0A980099B4B4409932378002B00F0A28000235D
:401B80004FF0FF3204930793059206938DF853301A9304F101084446DFF8489121784846052200F039FA08F10108049B30B1C9EB00000122824013430493ECE7D80644BF3A
:401BC00020228DF85320190744BF2B228DF8532022782A2A02D0079923460EE0039A0134111D12680391002ABBBF524243F0020307920792B8BF04930AE01C4622780133B4
:401C0000303A092A03D80A2000FB0121F5E7079123782E2B1AD163782A2B0AD1039B02341A1D1B680392002BB8BF4FF0FF3305930CE0611C00220C4623780131303B092B70
:401C400003D80A2000FB0232F5E70592DFF8988021784046032200F0DFF938B1049AC8EB00004023834013430493013421781A48062204F101088DF8281000F0CDF988B173
:401C8000164B33B9039B073323F007030833039313E003AB0093304604A92A46104BAFF3008007E003AB0093304604A92A460C4B00F092F8421C074603D0099B3B44099304
:401CC00041E7AB895B0601D4099801E04FF0FF301DB0BDE8F08300BFBC22000000000000551A0000B2220000B82200002DE9F84391461F468A680B6906469342B8BF1346DF
:401D0000C9F8003091F843200C46DDF8208012B10133C9F800302368990642BFD9F800300233C9F80030256815F006051CD094F843302268003318BF012392061FD5E11800
:401D4000302081F843005A1C94F845102244023382F8431013E03046394604F119020123C047013007D00135E368D9F800209B1A9D42F0DBDBE74FF0FF30BDE8F8833046D6
:401D8000394604F14302C0470130F4D02268D9F80050E36802F00602042A08BF5D1B2269A3680CBF25EAE57500259342C4BF9B1AED184FF00009A9450ADA3046394604F10C
:401DC0001A020123C0470130D5D009F10109F2E70020BDE8F88300002DE9FF410C461746227E98466E2A06460A9B01F1430100F0B08012D8632A23D00AD8002A00F0BD80A4
:401E0000582A40F0CC8084F84520DFF804E257E0642A1ED0692A1CD0C1E0732A00F0B18009D86F2A2ED0702A40F0B980226842F0200222603FE0752A24D0782A3BD0AEE0AD
:401E40001A6804F14205111D1960136884F84230A9E020681A6810F0800F02D0101D186008E010F0400F02F10400186002D0B2F9003000E01368002B3EDA2D225B4284F8A2
:401E8000432039E020681A6810F0800F02D0101D186007E010F0400F02F10400186001D0138800E01368227EDFF864E16F2A0CBF08220A221CE07822DFF858E184F845202D
:401EC0002268186812F0800F00F104051D6003D1550601D5038800E00368D00744BF42F0200222601BB9226822F0200222601022002084F8430002E0DFF814E10A22656879
:401F0000002DA8BF2068A560A4BF20F00400206003B965B10D46B3FBF2F002FB10331EF8033005F8013D03460028F4D100E00D46082A0BD12368DA0708D5236962689A421E
:401F4000DEBF302305F8013C05F1FF35491B21612EE025681A6815F0800F606903D0151D1D60136808E015F0400F02F104051D60136801D0188000E01860002323610D46C5
:401F800016E01A68111D1960156800212846626800F042F808B1401B6060636804E004F1420584F8422001232361002384F84330CDF800803046214603AA3B46FFF796FED1
:401FC000013002D14FF0FF301FE0304639462A462369C0470130F5D023689B0705D4E068039B9842B8BF18460FE00025E368039A9B1A9D42F3DA3046394604F11902012361
:40200000C0470130DED00135F0E704B0BDE8F081C3220000D422000010B5C9B202449042034605D01C7801308C42F8D1184610BD002010BD814210B501EB020301D3421E71
:402040000BE09842FBD28118D21AD34204D013F8014D01F8014DF8E710BD994204D011F8014B02F8014FF8E710BD000030B500293CD051F8042C0B1F1D49002AB8BF9B18A3
:402080000A680C4612B95A600B6030BD93420DD219685818904201BF5A5852181A60426823605A6030BD994203D80A4651680029F9D1146815199D420AD11B682344D018F6
:4020C0008842136012D10868034413604B680CE002D90C23036030BD1C681819884201BF08684968001918605960536030BD00BFC081FF1F70B5CC1C24F0030408340C2C99
:4021000038BF0C24002C064603DA0C233360002070BD8C42F9D3204A136810461946A1B10A68121B0ED40B2A03D90A608B188C501FE08B420BBF5A684A6802605A6018BF16
:402140000B4616E00B464968E9E7144D2B681BB9304600F04BF828603046214600F046F8421C0346D1D0C51C25F0030585420AD11C6003F10B001A1D20F00700821A0AD01B
:402180005142995070BD3046E91A00F02FF80130BBD02B46ECE770BDC081FF1FBC81FF1FF8B5074615460E4621B91146BDE8F840FFF7A0BF1AB9FFF759FF2846F8BD00F0BF
:4021C00025F8A8420ED238462946FFF793FF044650B131462A46FFF705FC38463146FFF745FF01E03046F8BD2046F8BD38B5064C0023054608462360FEF74CF8431C02D11B
:40220000236803B12B6038BDCC81FF1F51F8040C0028BEBF091851F8043CC0180438704700000000426C7565746F6F746820636F6E6E65637465640053616D706C653A20BC
:402240002564206D560D0A00456D756C6174656420446174613A202578200D0A00000000035B00402443004040000000005100402000305100404000F0510040100000001A
:4022800001400010001401400006801A0140800100400140000A004C014000020050014020000000001A0140B0020048800000004300232D302B2000686C4C0065666745D1
:4022C00046470030313233343536373839414243444546003031323334353637383961626364656600000000F8B500BFF8BC08BC9E4670474D0000007D030000F8B500BF95
:40230000F8BC08BC9E46704729000000202300000881FF1F80000000480000000000000000000000D081FF1F01FF000000366E01C05D0000180000000000E02E0000000058
:4023400000000000000000000000000000000000000000000000000000000000B022000000000000000000000000000000000000000000000000000000000000000000008B
:40238000000000000000000000000000000000000000000000000000000000002481FF1F00000000000000000000000000000000000000000000000000000000000000005A
:4023C00000000000000000000000000000000000000000000000000000000000000000000000000000000000000000000000000000000000000000000000000000000000DD
:40240000000000000000000000000000000000000000000000000000000000000000000000000000000000000000000000000000000000000000000000000000000000009C
:40244000000000000000000000000000000000000000000000000000000000000000000000000000000000000000000000000000000000000000000000000000000000005C
:40248000000000000000000000000000000000000000000000000000000000000000000000000000000000000000000000000000000000000000000000000000000000001C
:020000040003F7
:0200000480007A
:400000000252004003650040040601400107014001150140011701406D1801403D190140181A0140491B014002440140014501400346014002470140024801400149014093
:40004000034C01400A4D01400250014061806440880F8A728B38B980BF40D904DF012002EC10B00101800410064009030A030B440C090ED0130815531620170C18141CDCF0
:400080001E22200C215322712304281029202AAC2B452D0A2F543140330F341F358036E0373039803A803B083F114063410445EB46C0480B49FF4AFF4BFF4EF04F44500C6E
:4000C0005401580459045A045B045C115D115F0166C06A406B028031820E850F88C089028B018C2C8D018E038F069040910492809301950F96139A089C809D089E40A20CD6
:40010000A4C0A831AA06B00FB107B308B430B6C0B820BA02BE10C002C504C9FFCA07CBFFCC40CD20CEF0CF05D008D804D904DA04DC11DD01DF01E040E1A8E240E3200386FA
:400140000514070209080A020B840D080F0A1104120813021440172018041A021B031D101E041F802010234024402608272A2C402F8A324133043608370239043A203B40A2
:400180003D013E103F2040044440450849044B044D014E084F085108530857105C405D015E105F08C0EBC2EFC45ECAB0CCCBCEAED0C4D220D6F0E8808204840188018B01DF
:4001C0008E01920296019808AA04AE02B001B202B408B604B701B802BE54D418D804D904DB04DC11DD10DF0100500320044005220601072008010A1A0B400E541002131986
:4002000015A0180119211A101B281C081D401E401F0420402110220C23222580282129202A0131903201330838283B813E2040314280432049124A08514059015F02654004
:40024000670869046A806B0470147319880689108AA08B409010920693409504968097809E209F04C0F7C27FC4CFCA0FCC0FCE2FD00FD204D681D830EC107C20DE019C2068
:4002800045089C20D0019C20A5082510C820B510A508B020E8011080734088808B40B508C408DC01E004E601EC0810021C0200000010000033180C00000823001C44230033
:4002C000038040001F1C20E13FFF000002008004083C00C2040000E30CE7001801C08000101F2C000F38C0C00000280A000041002306040001C00E0006FFFFFF62A0F0413B
:400300000C00000000000213040404041111000100000000000040020010301000101012000000000000000000000000000000008000408080008000000000000002020061
:4003400000000100950018010000000000000000000000000000000000000000000000000000000000000000000000000000000000000000000000000000000000000000CE
:40038000000000000000000000000000000000000000000000000000000000000000000000000000000000000000000000000000000000000000000000000000000000003D
:4003C00000000000000000000000000000000000000000000000000000000000000000000000000000000000000000000000000000000000000000000000000000000000FD
:4004000000000000000000000000000000000000000000000000000000000000000000000000000000000000000000000000000000000000000000000000000000000000BC
:40044000000000000000000000000000000000000000000000000000000000000000000000000000000000000000000000000000000000000000000000000000000000007C
:0200000490006A
:0400000000004005B7
:0200000490105A
:04000000BC90ACAF55
:0200000490303A
:020000002FDBF4
:0200000490402A
:4000000000000000000000000000000000000000000000000000000000000000000000000000000000000000000000000000000000000000000000000000000000000000C0
:400040000000000000000000000000000000000000000000000000000000000000000000000000000000000000000000000000000000000000000000000000000000000080
:400080000000000000000000000000000000000000000000000000000000000000000000000000000000000000000000000000000000000000000000000000000000000040
:4000C0000000000000000000000000000000000000000000000000000000000000000000000000000000000000000000000000000000000000000000000000000000000000
:0200000490501A
:0C00000000012E16106900012E23404460
:00000001FF